{
  "_format": "hh-sol-artifact-1",
  "contractName": "Keyboards",
  "sourceName": "contracts/Keyboards.sol",
  "abi": [
    {
      "anonymous": false,
      "inputs": [
        {
          "components": [
            {
              "internalType": "enum Keyboards.KeyboardKind",
              "name": "kind",
              "type": "uint8"
            },
            {
              "internalType": "bool",
              "name": "isPBT",
              "type": "bool"
            },
            {
              "internalType": "string",
              "name": "filter",
              "type": "string"
            },
            {
              "internalType": "address",
              "name": "owner",
              "type": "address"
            }
          ],
          "indexed": false,
          "internalType": "struct Keyboards.Keyboard",
          "name": "keyboard",
          "type": "tuple"
        }
      ],
      "name": "KeyboardCreated",
      "type": "event"
    },
    {
      "anonymous": false,
      "inputs": [
        {
          "indexed": false,
          "internalType": "address",
          "name": "recipient",
          "type": "address"
        },
        {
          "indexed": false,
          "internalType": "uint256",
          "name": "amount",
          "type": "uint256"
        }
      ],
      "name": "TipSent",
      "type": "event"
    },
    {
      "inputs": [
        {
          "internalType": "enum Keyboards.KeyboardKind",
          "name": "_kind",
          "type": "uint8"
        },
        {
          "internalType": "bool",
          "name": "_isPBT",
          "type": "bool"
        },
        {
          "internalType": "string",
          "name": "_filter",
          "type": "string"
        }
      ],
      "name": "create",
      "outputs": [],
      "stateMutability": "nonpayable",
      "type": "function"
    },
    {
      "inputs": [
        {
          "internalType": "uint256",
          "name": "",
          "type": "uint256"
        }
      ],
      "name": "createdKeyboards",
      "outputs": [
        {
          "internalType": "enum Keyboards.KeyboardKind",
          "name": "kind",
          "type": "uint8"
        },
        {
          "internalType": "bool",
          "name": "isPBT",
          "type": "bool"
        },
        {
          "internalType": "string",
          "name": "filter",
          "type": "string"
        },
        {
          "internalType": "address",
          "name": "owner",
          "type": "address"
        }
      ],
      "stateMutability": "view",
      "type": "function"
    },
    {
      "inputs": [],
      "name": "getKeyboards",
      "outputs": [
        {
          "components": [
            {
              "internalType": "enum Keyboards.KeyboardKind",
              "name": "kind",
              "type": "uint8"
            },
            {
              "internalType": "bool",
              "name": "isPBT",
              "type": "bool"
            },
            {
              "internalType": "string",
              "name": "filter",
              "type": "string"
            },
            {
              "internalType": "address",
              "name": "owner",
              "type": "address"
            }
          ],
          "internalType": "struct Keyboards.Keyboard[]",
          "name": "",
          "type": "tuple[]"
        }
      ],
      "stateMutability": "view",
      "type": "function"
    },
    {
      "inputs": [
        {
          "internalType": "uint256",
          "name": "_index",
          "type": "uint256"
        }
      ],
      "name": "tip",
      "outputs": [],
      "stateMutability": "payable",
      "type": "function"
    }
  ],
  "bytecode": "0x608060405234801561001057600080fd5b50610da5806100206000396000f3fe60806040526004361061003f5760003560e01c806352810aa114610044578063778bc8471461006f578063d80ad431146100af578063e8b69bc3146100d8575b600080fd5b34801561005057600080fd5b506100596100f4565b6040516100669190610947565b60405180910390f35b34801561007b57600080fd5b50610096600480360381019061009191906109a9565b610291565b6040516100a69493929190610a4d565b60405180910390f35b3480156100bb57600080fd5b506100d660048036038101906100d19190610b4f565b610393565b005b6100f260048036038101906100ed91906109a9565b610546565b005b60606000805480602002602001604051908101604052809291908181526020016000905b8282101561028857838290600052602060002090600302016040518060800160405290816000820160009054906101000a900460ff1660038111156101605761015f6106e2565b5b6003811115610172576101716106e2565b5b81526020016000820160019054906101000a900460ff161515151581526020016001820180546101a190610bf2565b80601f01602080910402602001604051908101604052809291908181526020018280546101cd90610bf2565b801561021a5780601f106101ef5761010080835404028352916020019161021a565b820191906000526020600020905b8154815290600101906020018083116101fd57829003601f168201915b505050505081526020016002820160009054906101000a900473ffffffffffffffffffffffffffffffffffffffff1673ffffffffffffffffffffffffffffffffffffffff1673ffffffffffffffffffffffffffffffffffffffff168152505081526020019060010190610118565b50505050905090565b600081815481106102a157600080fd5b90600052602060002090600302016000915090508060000160009054906101000a900460ff16908060000160019054906101000a900460ff16908060010180546102ea90610bf2565b80601f016020809104026020016040519081016040528092919081815260200182805461031690610bf2565b80156103635780601f1061033857610100808354040283529160200191610363565b820191906000526020600020905b81548152906001019060200180831161034657829003601f168201915b5050505050908060020160009054906101000a900473ffffffffffffffffffffffffffffffffffffffff16905084565b600060405180608001604052808660038111156103b3576103b26106e2565b5b8152602001851515815260200184848080601f016020809104026020016040519081016040528093929190818152602001838380828437600081840152601f19601f8201169050808301925050505050505081526020013373ffffffffffffffffffffffffffffffffffffffff168152509050600081908060018154018082558091505060019003906000526020600020906003020160009091909190915060008201518160000160006101000a81548160ff0219169083600381111561047d5761047c6106e2565b5b021790555060208201518160000160016101000a81548160ff02191690831515021790555060408201518160010190805190602001906104be929190610613565b5060608201518160020160006101000a81548173ffffffffffffffffffffffffffffffffffffffff021916908373ffffffffffffffffffffffffffffffffffffffff16021790555050507f10a5f72cc15ad697630d0470547e58335ec196e4ce08851d095d19398b1cbdd7816040516105379190610c87565b60405180910390a15050505050565b600080828154811061055b5761055a610ca9565b5b906000526020600020906003020160020160009054906101000a900473ffffffffffffffffffffffffffffffffffffffff1690508073ffffffffffffffffffffffffffffffffffffffff166108fc349081150290604051600060405180830381858888f193505050501580156105d5573d6000803e3d6000fd5b507f171011172a05babdafffeb4c3cb97a07f0e1e7a0538eab4f4331336fb76fef058134604051610607929190610d46565b60405180910390a15050565b82805461061f90610bf2565b90600052602060002090601f0160209004810192826106415760008555610688565b82601f1061065a57805160ff1916838001178555610688565b82800160010185558215610688579182015b8281111561068757825182559160200191906001019061066c565b5b5090506106959190610699565b5090565b5b808211156106b257600081600090555060010161069a565b5090565b600081519050919050565b600082825260208201905092915050565b6000819050602082019050919050565b7f4e487b7100000000000000000000000000000000000000000000000000000000600052602160045260246000fd5b60048110610722576107216106e2565b5b50565b600081905061073382610711565b919050565b600061074382610725565b9050919050565b61075381610738565b82525050565b60008115159050919050565b61076e81610759565b82525050565b600081519050919050565b600082825260208201905092915050565b60005b838110156107ae578082015181840152602081019050610793565b838111156107bd576000848401525b50505050565b6000601f19601f8301169050919050565b60006107df82610774565b6107e9818561077f565b93506107f9818560208601610790565b610802816107c3565b840191505092915050565b600073ffffffffffffffffffffffffffffffffffffffff82169050919050565b60006108388261080d565b9050919050565b6108488161082d565b82525050565b6000608083016000830151610866600086018261074a565b5060208301516108796020860182610765565b506040830151848203604086015261089182826107d4565b91505060608301516108a6606086018261083f565b508091505092915050565b60006108bd838361084e565b905092915050565b6000602082019050919050565b60006108dd826106b6565b6108e781856106c1565b9350836020820285016108f9856106d2565b8060005b85811015610935578484038952815161091685826108b1565b9450610921836108c5565b925060208a019950506001810190506108fd565b50829750879550505050505092915050565b6000602082019050818103600083015261096181846108d2565b905092915050565b600080fd5b600080fd5b6000819050919050565b61098681610973565b811461099157600080fd5b50565b6000813590506109a38161097d565b92915050565b6000602082840312156109bf576109be610969565b5b60006109cd84828501610994565b91505092915050565b6109df81610738565b82525050565b6109ee81610759565b82525050565b600082825260208201905092915050565b6000610a1082610774565b610a1a81856109f4565b9350610a2a818560208601610790565b610a33816107c3565b840191505092915050565b610a478161082d565b82525050565b6000608082019050610a6260008301876109d6565b610a6f60208301866109e5565b8181036040830152610a818185610a05565b9050610a906060830184610a3e565b95945050505050565b60048110610aa657600080fd5b50565b600081359050610ab881610a99565b92915050565b610ac781610759565b8114610ad257600080fd5b50565b600081359050610ae481610abe565b92915050565b600080fd5b600080fd5b600080fd5b60008083601f840112610b0f57610b0e610aea565b5b8235905067ffffffffffffffff811115610b2c57610b2b610aef565b5b602083019150836001820283011115610b4857610b47610af4565b5b9250929050565b60008060008060608587031215610b6957610b68610969565b5b6000610b7787828801610aa9565b9450506020610b8887828801610ad5565b935050604085013567ffffffffffffffff811115610ba957610ba861096e565b5b610bb587828801610af9565b925092505092959194509250565b7f4e487b7100000000000000000000000000000000000000000000000000000000600052602260045260246000fd5b60006002820490506001821680610c0a57607f821691505b60208210811415610c1e57610c1d610bc3565b5b50919050565b6000608083016000830151610c3c600086018261074a565b506020830151610c4f6020860182610765565b5060408301518482036040860152610c6782826107d4565b9150506060830151610c7c606086018261083f565b508091505092915050565b60006020820190508181036000830152610ca18184610c24565b905092915050565b7f4e487b7100000000000000000000000000000000000000000000000000000000600052603260045260246000fd5b6000819050919050565b6000610cfd610cf8610cf38461080d565b610cd8565b61080d565b9050919050565b6000610d0f82610ce2565b9050919050565b6000610d2182610d04565b9050919050565b610d3181610d16565b82525050565b610d4081610973565b82525050565b6000604082019050610d5b6000830185610d28565b610d686020830184610d37565b939250505056fea2646970667358221220787dacef08cff75a2190f2ed9d939ae572e270660fd6b48ab01330d31f30bd2064736f6c63430008090033",
  "linkReferences": {},
  "deployedLinkReferences": {}
}